{
  "contractName": "Voting",
  "abi": [
    {
      "inputs": [],
      "stateMutability": "nonpayable",
      "type": "constructor"
    },
    {
      "anonymous": false,
      "inputs": [
        {
          "indexed": true,
          "internalType": "address",
          "name": "account",
          "type": "address"
        },
        {
          "indexed": true,
          "internalType": "address",
          "name": "operator",
          "type": "address"
        },
        {
          "indexed": false,
          "internalType": "bool",
          "name": "approved",
          "type": "bool"
        }
      ],
      "name": "ApprovalForAll",
      "type": "event"
    },
    {
      "anonymous": false,
      "inputs": [
        {
          "indexed": false,
          "internalType": "uint256",
          "name": "votingId",
          "type": "uint256"
        },
        {
          "indexed": false,
          "internalType": "string",
          "name": "emailId",
          "type": "string"
        }
      ],
      "name": "NewCandidateRegistered",
      "type": "event"
    },
    {
      "anonymous": false,
      "inputs": [
        {
          "indexed": false,
          "internalType": "uint256",
          "name": "votingId",
          "type": "uint256"
        },
        {
          "indexed": false,
          "internalType": "uint256",
          "name": "electionId",
          "type": "uint256"
        },
        {
          "indexed": false,
          "internalType": "string",
          "name": "description",
          "type": "string"
        }
      ],
      "name": "NewElectionCreate",
      "type": "event"
    },
    {
      "anonymous": false,
      "inputs": [
        {
          "indexed": true,
          "internalType": "address",
          "name": "previousOwner",
          "type": "address"
        },
        {
          "indexed": true,
          "internalType": "address",
          "name": "newOwner",
          "type": "address"
        }
      ],
      "name": "OwnershipTransferred",
      "type": "event"
    },
    {
      "anonymous": false,
      "inputs": [
        {
          "indexed": true,
          "internalType": "address",
          "name": "operator",
          "type": "address"
        },
        {
          "indexed": true,
          "internalType": "address",
          "name": "from",
          "type": "address"
        },
        {
          "indexed": true,
          "internalType": "address",
          "name": "to",
          "type": "address"
        },
        {
          "indexed": false,
          "internalType": "uint256[]",
          "name": "ids",
          "type": "uint256[]"
        },
        {
          "indexed": false,
          "internalType": "uint256[]",
          "name": "values",
          "type": "uint256[]"
        }
      ],
      "name": "TransferBatch",
      "type": "event"
    },
    {
      "anonymous": false,
      "inputs": [
        {
          "indexed": true,
          "internalType": "address",
          "name": "operator",
          "type": "address"
        },
        {
          "indexed": true,
          "internalType": "address",
          "name": "from",
          "type": "address"
        },
        {
          "indexed": true,
          "internalType": "address",
          "name": "to",
          "type": "address"
        },
        {
          "indexed": false,
          "internalType": "uint256",
          "name": "id",
          "type": "uint256"
        },
        {
          "indexed": false,
          "internalType": "uint256",
          "name": "value",
          "type": "uint256"
        }
      ],
      "name": "TransferSingle",
      "type": "event"
    },
    {
      "anonymous": false,
      "inputs": [
        {
          "indexed": false,
          "internalType": "string",
          "name": "value",
          "type": "string"
        },
        {
          "indexed": true,
          "internalType": "uint256",
          "name": "id",
          "type": "uint256"
        }
      ],
      "name": "URI",
      "type": "event"
    },
    {
      "anonymous": false,
      "inputs": [
        {
          "indexed": false,
          "internalType": "uint256",
          "name": "votingId",
          "type": "uint256"
        },
        {
          "indexed": false,
          "internalType": "address",
          "name": "candidateAddress",
          "type": "address"
        }
      ],
      "name": "Voted",
      "type": "event"
    },
    {
      "anonymous": false,
      "inputs": [
        {
          "indexed": false,
          "internalType": "uint256",
          "name": "votingId",
          "type": "uint256"
        },
        {
          "indexed": false,
          "internalType": "enum Voting.electionStage",
          "name": "stage",
          "type": "uint8"
        }
      ],
      "name": "VotingStageChange",
      "type": "event"
    },
    {
      "anonymous": false,
      "inputs": [
        {
          "indexed": false,
          "internalType": "uint256",
          "name": "votingId",
          "type": "uint256"
        },
        {
          "indexed": false,
          "internalType": "uint256",
          "name": "electionId",
          "type": "uint256"
        }
      ],
      "name": "VotingTokenTransfered",
      "type": "event"
    },
    {
      "inputs": [],
      "name": "_tokenIdCounter",
      "outputs": [
        {
          "internalType": "uint256",
          "name": "_value",
          "type": "uint256"
        }
      ],
      "stateMutability": "view",
      "type": "function",
      "constant": true
    },
    {
      "inputs": [
        {
          "internalType": "address",
          "name": "account",
          "type": "address"
        },
        {
          "internalType": "uint256",
          "name": "id",
          "type": "uint256"
        }
      ],
      "name": "balanceOf",
      "outputs": [
        {
          "internalType": "uint256",
          "name": "",
          "type": "uint256"
        }
      ],
      "stateMutability": "view",
      "type": "function",
      "constant": true
    },
    {
      "inputs": [
        {
          "internalType": "address[]",
          "name": "accounts",
          "type": "address[]"
        },
        {
          "internalType": "uint256[]",
          "name": "ids",
          "type": "uint256[]"
        }
      ],
      "name": "balanceOfBatch",
      "outputs": [
        {
          "internalType": "uint256[]",
          "name": "",
          "type": "uint256[]"
        }
      ],
      "stateMutability": "view",
      "type": "function",
      "constant": true
    },
    {
      "inputs": [
        {
          "internalType": "address",
          "name": "account",
          "type": "address"
        },
        {
          "internalType": "uint256",
          "name": "id",
          "type": "uint256"
        },
        {
          "internalType": "uint256",
          "name": "value",
          "type": "uint256"
        }
      ],
      "name": "burn",
      "outputs": [],
      "stateMutability": "nonpayable",
      "type": "function"
    },
    {
      "inputs": [
        {
          "internalType": "address",
          "name": "account",
          "type": "address"
        },
        {
          "internalType": "uint256[]",
          "name": "ids",
          "type": "uint256[]"
        },
        {
          "internalType": "uint256[]",
          "name": "values",
          "type": "uint256[]"
        }
      ],
      "name": "burnBatch",
      "outputs": [],
      "stateMutability": "nonpayable",
      "type": "function"
    },
    {
      "inputs": [
        {
          "internalType": "uint256",
          "name": "id",
          "type": "uint256"
        }
      ],
      "name": "exists",
      "outputs": [
        {
          "internalType": "bool",
          "name": "",
          "type": "bool"
        }
      ],
      "stateMutability": "view",
      "type": "function",
      "constant": true
    },
    {
      "inputs": [
        {
          "internalType": "address",
          "name": "account",
          "type": "address"
        },
        {
          "internalType": "address",
          "name": "operator",
          "type": "address"
        }
      ],
      "name": "isApprovedForAll",
      "outputs": [
        {
          "internalType": "bool",
          "name": "",
          "type": "bool"
        }
      ],
      "stateMutability": "view",
      "type": "function",
      "constant": true
    },
    {
      "inputs": [],
      "name": "owner",
      "outputs": [
        {
          "internalType": "address",
          "name": "",
          "type": "address"
        }
      ],
      "stateMutability": "view",
      "type": "function",
      "constant": true
    },
    {
      "inputs": [],
      "name": "renounceOwnership",
      "outputs": [],
      "stateMutability": "nonpayable",
      "type": "function"
    },
    {
      "inputs": [
        {
          "internalType": "address",
          "name": "from",
          "type": "address"
        },
        {
          "internalType": "address",
          "name": "to",
          "type": "address"
        },
        {
          "internalType": "uint256[]",
          "name": "ids",
          "type": "uint256[]"
        },
        {
          "internalType": "uint256[]",
          "name": "amounts",
          "type": "uint256[]"
        },
        {
          "internalType": "bytes",
          "name": "data",
          "type": "bytes"
        }
      ],
      "name": "safeBatchTransferFrom",
      "outputs": [],
      "stateMutability": "nonpayable",
      "type": "function"
    },
    {
      "inputs": [
        {
          "internalType": "address",
          "name": "from",
          "type": "address"
        },
        {
          "internalType": "address",
          "name": "to",
          "type": "address"
        },
        {
          "internalType": "uint256",
          "name": "id",
          "type": "uint256"
        },
        {
          "internalType": "uint256",
          "name": "amount",
          "type": "uint256"
        },
        {
          "internalType": "bytes",
          "name": "data",
          "type": "bytes"
        }
      ],
      "name": "safeTransferFrom",
      "outputs": [],
      "stateMutability": "nonpayable",
      "type": "function"
    },
    {
      "inputs": [
        {
          "internalType": "address",
          "name": "operator",
          "type": "address"
        },
        {
          "internalType": "bool",
          "name": "approved",
          "type": "bool"
        }
      ],
      "name": "setApprovalForAll",
      "outputs": [],
      "stateMutability": "nonpayable",
      "type": "function"
    },
    {
      "inputs": [
        {
          "internalType": "bytes4",
          "name": "interfaceId",
          "type": "bytes4"
        }
      ],
      "name": "supportsInterface",
      "outputs": [
        {
          "internalType": "bool",
          "name": "",
          "type": "bool"
        }
      ],
      "stateMutability": "view",
      "type": "function",
      "constant": true
    },
    {
      "inputs": [
        {
          "internalType": "uint256",
          "name": "id",
          "type": "uint256"
        }
      ],
      "name": "totalSupply",
      "outputs": [
        {
          "internalType": "uint256",
          "name": "",
          "type": "uint256"
        }
      ],
      "stateMutability": "view",
      "type": "function",
      "constant": true
    },
    {
      "inputs": [
        {
          "internalType": "address",
          "name": "newOwner",
          "type": "address"
        }
      ],
      "name": "transferOwnership",
      "outputs": [],
      "stateMutability": "nonpayable",
      "type": "function"
    },
    {
      "inputs": [
        {
          "internalType": "uint256",
          "name": "",
          "type": "uint256"
        }
      ],
      "name": "uri",
      "outputs": [
        {
          "internalType": "string",
          "name": "",
          "type": "string"
        }
      ],
      "stateMutability": "view",
      "type": "function",
      "constant": true
    },
    {
      "inputs": [
        {
          "internalType": "uint256",
          "name": "_votingId",
          "type": "uint256"
        },
        {
          "internalType": "string",
          "name": "_description",
          "type": "string"
        }
      ],
      "name": "initiatedNewVoting",
      "outputs": [],
      "stateMutability": "nonpayable",
      "type": "function"
    },
    {
      "inputs": [
        {
          "internalType": "string",
          "name": "_name",
          "type": "string"
        },
        {
          "internalType": "string",
          "name": "_emailId",
          "type": "string"
        },
        {
          "internalType": "address",
          "name": "_candidateAddress",
          "type": "address"
        },
        {
          "internalType": "uint256",
          "name": "_votingId",
          "type": "uint256"
        }
      ],
      "name": "registerCandidate",
      "outputs": [],
      "stateMutability": "nonpayable",
      "type": "function"
    },
    {
      "inputs": [
        {
          "internalType": "uint256",
          "name": "_votingId",
          "type": "uint256"
        },
        {
          "internalType": "uint256",
          "name": "_stage",
          "type": "uint256"
        }
      ],
      "name": "changeStage",
      "outputs": [],
      "stateMutability": "nonpayable",
      "type": "function"
    },
    {
      "inputs": [
        {
          "internalType": "string",
          "name": "_emailId",
          "type": "string"
        },
        {
          "internalType": "address",
          "name": "_to",
          "type": "address"
        },
        {
          "internalType": "uint256",
          "name": "_votingId",
          "type": "uint256"
        }
      ],
      "name": "requestVotingToken",
      "outputs": [],
      "stateMutability": "nonpayable",
      "type": "function"
    },
    {
      "inputs": [
        {
          "internalType": "uint256",
          "name": "_votingId",
          "type": "uint256"
        }
      ],
      "name": "getVotingTokenCount",
      "outputs": [
        {
          "internalType": "uint256",
          "name": "",
          "type": "uint256"
        }
      ],
      "stateMutability": "view",
      "type": "function",
      "constant": true
    },
    {
      "inputs": [
        {
          "internalType": "uint256",
          "name": "_votingId",
          "type": "uint256"
        }
      ],
      "name": "getVotingTokenId",
      "outputs": [
        {
          "internalType": "uint256",
          "name": "",
          "type": "uint256"
        }
      ],
      "stateMutability": "view",
      "type": "function",
      "constant": true
    },
    {
      "inputs": [
        {
          "internalType": "uint256",
          "name": "_votingId",
          "type": "uint256"
        },
        {
          "internalType": "string",
          "name": "_emailId",
          "type": "string"
        }
      ],
      "name": "isTokenDistributed",
      "outputs": [
        {
          "internalType": "bool",
          "name": "",
          "type": "bool"
        }
      ],
      "stateMutability": "view",
      "type": "function",
      "constant": true
    },
    {
      "inputs": [
        {
          "internalType": "uint256",
          "name": "_votingId",
          "type": "uint256"
        },
        {
          "internalType": "address",
          "name": "_candidateAddress",
          "type": "address"
        }
      ],
      "name": "isCandidateValid",
      "outputs": [
        {
          "internalType": "bool",
          "name": "",
          "type": "bool"
        }
      ],
      "stateMutability": "view",
      "type": "function",
      "constant": true
    },
    {
      "inputs": [
        {
          "internalType": "uint256",
          "name": "_votingId",
          "type": "uint256"
        },
        {
          "internalType": "address",
          "name": "_candidateAddress",
          "type": "address"
        }
      ],
      "name": "vote",
      "outputs": [],
      "stateMutability": "nonpayable",
      "type": "function"
    },
    {
      "inputs": [
        {
          "internalType": "uint256",
          "name": "_votingId",
          "type": "uint256"
        }
      ],
      "name": "isVotingOpen",
      "outputs": [
        {
          "internalType": "bool",
          "name": "",
          "type": "bool"
        }
      ],
      "stateMutability": "view",
      "type": "function",
      "constant": true
    },
    {
      "inputs": [
        {
          "internalType": "uint256",
          "name": "_votingId",
          "type": "uint256"
        }
      ],
      "name": "declareResult",
      "outputs": [],
      "stateMutability": "nonpayable",
      "type": "function"
    }
  ],
  "bytecode": "0x60806040523480156200001157600080fd5b50604051806020016040528060008152506200003c8162000075640100000000026401000000009004565b506200006f6200005a62000091640100000000026401000000009004565b62000099640100000000026401000000009004565b62000274565b80600290805190602001906200008d9291906200015f565b5050565b600033905090565b6000600460009054906101000a900473ffffffffffffffffffffffffffffffffffffffff16905081600460006101000a81548173ffffffffffffffffffffffffffffffffffffffff021916908373ffffffffffffffffffffffffffffffffffffffff1602179055508173ffffffffffffffffffffffffffffffffffffffff168173ffffffffffffffffffffffffffffffffffffffff167f8be0079c531659141344cd1fd0a4f28419497f9722a3daafe3b4186f6b6457e060405160405180910390a35050565b8280546200016d906200023e565b90600052602060002090601f016020900481019282620001915760008555620001dd565b82601f10620001ac57805160ff1916838001178555620001dd565b82800160010185558215620001dd579182015b82811115620001dc578251825591602001919060010190620001bf565b5b509050620001ec9190620001f0565b5090565b5b808211156200020b576000816000905550600101620001f1565b5090565b7f4e487b7100000000000000000000000000000000000000000000000000000000600052602260045260246000fd5b600060028204905060018216806200025757607f821691505b602082108114156200026e576200026d6200020f565b5b50919050565b614bde80620002846000396000f3fe608060405234801561001057600080fd5b50600436106101c5576000357c01000000000000000000000000000000000000000000000000000000009004806384c4bd4b11610116578063bd85b039116100b4578063e985e9c51161008e578063e985e9c51461051c578063f242432a1461054c578063f2fde38b14610568578063f5298aca14610584576101c5565b8063bd85b039146104b4578063d867cb53146104e4578063e422e0a914610500576101c5565b80638da5cb5b116100f05780638da5cb5b1461042e5780639849056c1461044c5780639bde8fc514610468578063a22cb46514610498576101c5565b806384c4bd4b146103b0578063888c7cc5146103ce57806389030d9e146103fe576101c5565b8063315f2ab0116101835780634f558e791161015d5780634f558e791461033e5780636b20c4541461036e578063715018a61461038a57806376ea837f14610394576101c5565b8063315f2ab0146102c25780633cd746bb146102f25780634e1273f41461030e576101c5565b8062fdd58e146101ca57806301ffc9a7146101fa57806302d947ef1461022a578063074dbaa6146102465780630e89341c146102765780632eb2c2d6146102a6575b600080fd5b6101e460048036038101906101df9190612ead565b6105a0565b6040516101f19190612efc565b60405180910390f35b610214600480360381019061020f9190612f6f565b610669565b6040516102219190612fb7565b60405180910390f35b610244600480360381019061023f9190612fd2565b61074b565b005b610260600480360381019061025b9190613012565b6108ed565b60405161026d9190612fb7565b60405180910390f35b610290600480360381019061028b9190613012565b610952565b60405161029d91906130d8565b60405180910390f35b6102c060048036038101906102bb91906132f7565b6109e6565b005b6102dc60048036038101906102d79190613012565b610a87565b6040516102e99190612efc565b60405180910390f35b61030c60048036038101906103079190613467565b610aa7565b005b61032860048036038101906103239190613586565b610b8c565b60405161033591906136bc565b60405180910390f35b61035860048036038101906103539190613012565b610ca5565b6040516103659190612fb7565b60405180910390f35b610388600480360381019061038391906136de565b610cb9565b005b610392610d56565b005b6103ae60048036038101906103a99190613012565b610d6a565b005b6103b8610dac565b6040516103c59190612efc565b60405180910390f35b6103e860048036038101906103e39190613467565b610db8565b6040516103f59190612fb7565b60405180910390f35b61041860048036038101906104139190612fd2565b610e7d565b6040516104259190612fb7565b60405180910390f35b610436610f55565b6040516104439190613778565b60405180910390f35b61046660048036038101906104619190613793565b610f7f565b005b610482600480360381019061047d9190613012565b6111c5565b60405161048f9190612efc565b60405180910390f35b6104b260048036038101906104ad919061385e565b6111ed565b005b6104ce60048036038101906104c99190613012565b611203565b6040516104db9190612efc565b60405180910390f35b6104fe60048036038101906104f9919061389e565b611220565b005b61051a6004803603810190610515919061390d565b6113b5565b005b6105366004803603810190610531919061394d565b61146d565b6040516105439190612fb7565b60405180910390f35b6105666004803603810190610561919061398d565b611501565b005b610582600480360381019061057d9190613a24565b6115a2565b005b61059e60048036038101906105999190613a51565b611626565b005b60008073ffffffffffffffffffffffffffffffffffffffff168373ffffffffffffffffffffffffffffffffffffffff161415610611576040517f08c379a000000000000000000000000000000000000000000000000000000000815260040161060890613b16565b60405180910390fd5b60008083815260200190815260200160002060008473ffffffffffffffffffffffffffffffffffffffff1673ffffffffffffffffffffffffffffffffffffffff16815260200190815260200160002054905092915050565b60007fd9b67a26000000000000000000000000000000000000000000000000000000007bffffffffffffffffffffffffffffffffffffffffffffffffffffffff1916827bffffffffffffffffffffffffffffffffffffffffffffffffffffffff1916148061073457507f0e89341c000000000000000000000000000000000000000000000000000000007bffffffffffffffffffffffffffffffffffffffffffffffffffffffff1916827bffffffffffffffffffffffffffffffffffffffffffffffffffffffff1916145b806107445750610743826116c3565b5b9050919050565b60006006600084815260200190815260200160002060020160009054906101000a900460ff169050600060066000858152602001908152602001600020600001549050600160038111156107a2576107a1613b36565b5b8260038111156107b5576107b4613b36565b5b146107f5576040517f08c379a00000000000000000000000000000000000000000000000000000000081526004016107ec90613bb1565b60405180910390fd5b600161080133836105a0565b14610841576040517f08c379a000000000000000000000000000000000000000000000000000000000815260040161083890613c1d565b60405180910390fd5b6001151561084f8585610e7d565b151514610891576040517f08c379a000000000000000000000000000000000000000000000000000000000815260040161088890613c89565b60405180910390fd5b6108ae338483600160405180602001604052806000815250611501565b7f030b0f8dcd86a031eddb071f91882edeac8173663ba775713b677b42b51be44b84846040516108df929190613ca9565b60405180910390a150505050565b60006001600381111561090357610902613b36565b5b6006600084815260200190815260200160002060020160009054906101000a900460ff16600381111561093957610938613b36565b5b1415610948576001905061094d565b600090505b919050565b60606002805461096190613d01565b80601f016020809104026020016040519081016040528092919081815260200182805461098d90613d01565b80156109da5780601f106109af576101008083540402835291602001916109da565b820191906000526020600020905b8154815290600101906020018083116109bd57829003601f168201915b50505050509050919050565b6109ee61172d565b73ffffffffffffffffffffffffffffffffffffffff168573ffffffffffffffffffffffffffffffffffffffff161480610a345750610a3385610a2e61172d565b61146d565b5b610a73576040517f08c379a0000000000000000000000000000000000000000000000000000000008152600401610a6a90613da5565b60405180910390fd5b610a808585858585611735565b5050505050565b600060066000838152602001908152602001600020600001549050919050565b610aaf611a57565b6000610abb6005611ad5565b905080600660008581526020019081526020016000206000018190555081600660008581526020019081526020016000206001019080519060200190610b02929190612d62565b5060006006600085815260200190815260200160002060020160006101000a81548160ff02191690836003811115610b3d57610b3c613b36565b5b0217905550610b4c6005611ae3565b7f5a79327c3b6a870dc50445e424113852147620847a178c7b357290c928a3e7d2838284604051610b7f93929190613dc5565b60405180910390a1505050565b60608151835114610bd2576040517f08c379a0000000000000000000000000000000000000000000000000000000008152600401610bc990613e75565b60405180910390fd5b6000835167ffffffffffffffff811115610bef57610bee6130ff565b5b604051908082528060200260200182016040528015610c1d5781602001602082028036833780820191505090505b50905060005b8451811015610c9a57610c6a858281518110610c4257610c41613e95565b5b6020026020010151858381518110610c5d57610c5c613e95565b5b60200260200101516105a0565b828281518110610c7d57610c7c613e95565b5b60200260200101818152505080610c9390613ef3565b9050610c23565b508091505092915050565b600080610cb183611203565b119050919050565b610cc161172d565b73ffffffffffffffffffffffffffffffffffffffff168373ffffffffffffffffffffffffffffffffffffffff161480610d075750610d0683610d0161172d565b61146d565b5b610d46576040517f08c379a0000000000000000000000000000000000000000000000000000000008152600401610d3d90613da5565b60405180910390fd5b610d51838383611af9565b505050565b610d5e611a57565b610d686000611dc8565b565b60036006600083815260200190815260200160002060020160006101000a81548160ff02191690836003811115610da457610da3613b36565b5b021790555050565b60058060000154905081565b600080600883604051610dcb9190613f78565b9081526020016040518091039020805480602002602001604051908101604052809291908181526020018280548015610e2357602002820191906000526020600020905b815481526020019060010190808311610e0f575b505050505090506000805b8251811015610e715785838281518110610e4b57610e4a613e95565b5b60200260200101511415610e5e57600191505b8080610e6990613ef3565b915050610e2e565b50809250505092915050565b600080600090505b6006600085815260200190815260200160002060030180549050811015610f4957600660008581526020019081526020016000206003018181548110610ece57610ecd613e95565b5b9060005260206000200160009054906101000a900473ffffffffffffffffffffffffffffffffffffffff1673ffffffffffffffffffffffffffffffffffffffff168373ffffffffffffffffffffffffffffffffffffffff161415610f36576001915050610f4f565b8080610f4190613ef3565b915050610e85565b50600090505b92915050565b6000600460009054906101000a900473ffffffffffffffffffffffffffffffffffffffff16905090565b600073ffffffffffffffffffffffffffffffffffffffff168273ffffffffffffffffffffffffffffffffffffffff161415610fef576040517f08c379a0000000000000000000000000000000000000000000000000000000008152600401610fe690613fdb565b60405180910390fd5b6000600381111561100357611002613b36565b5b6006600083815260200190815260200160002060020160009054906101000a900460ff16600381111561103957611038613b36565b5b14611079576040517f08c379a000000000000000000000000000000000000000000000000000000000815260040161107090614047565b60405180910390fd5b60066000828152602001908152602001600020600301829080600181540180825580915050600190039060005260206000200160009091909190916101000a81548173ffffffffffffffffffffffffffffffffffffffff021916908373ffffffffffffffffffffffffffffffffffffffff160217905550836007846040516111019190613f78565b90815260200160405180910390206000019080519060200190611125929190612d62565b50816007846040516111379190613f78565b908152602001604051809103902060010160006101000a81548173ffffffffffffffffffffffffffffffffffffffff021916908373ffffffffffffffffffffffffffffffffffffffff1602179055507fd818503a6842e9e81932bd01be09bea05d75cb98bfc55597805e6990e6b83a3281846040516111b7929190614067565b60405180910390a150505050565b60006111e66006600084815260200190815260200160002060000154611203565b9050919050565b6111ff6111f861172d565b8383611e8e565b5050565b600060036000838152602001908152602001600020549050919050565b6001600381111561123457611233613b36565b5b6006600083815260200190815260200160002060020160009054906101000a900460ff16600381111561126a57611269613b36565b5b146112aa576040517f08c379a00000000000000000000000000000000000000000000000000000000081526004016112a1906140e3565b60405180910390fd5b600015156112b88285610db8565b1515146112fa576040517f08c379a00000000000000000000000000000000000000000000000000000000081526004016112f190614175565b60405180910390fd5b6000600660008381526020019081526020016000206000015490506113318382600160405180602001604052806000815250611ffb565b6008846040516113419190613f78565b90815260200160405180910390208290806001815401808255809150506001900390600052602060002001600090919091909150557f264077cf578a8b95165cb379b4bb07da947bdf0fa710a13ab753c5c0218e71fb82826040516113a7929190614195565b60405180910390a150505050565b6113bd611a57565b8060038111156113d0576113cf613b36565b5b6006600084815260200190815260200160002060020160006101000a81548160ff0219169083600381111561140857611407613b36565b5b02179055507fc3d40443be0218472d96533c109c1bd65532e2d4eabebcb6e5b3c78d41110252826006600085815260200190815260200160002060020160009054906101000a900460ff16604051611461929190614206565b60405180910390a15050565b6000600160008473ffffffffffffffffffffffffffffffffffffffff1673ffffffffffffffffffffffffffffffffffffffff16815260200190815260200160002060008373ffffffffffffffffffffffffffffffffffffffff1673ffffffffffffffffffffffffffffffffffffffff16815260200190815260200160002060009054906101000a900460ff16905092915050565b61150961172d565b73ffffffffffffffffffffffffffffffffffffffff168573ffffffffffffffffffffffffffffffffffffffff16148061154f575061154e8561154961172d565b61146d565b5b61158e576040517f08c379a000000000000000000000000000000000000000000000000000000000815260040161158590613da5565b60405180910390fd5b61159b85858585856121ac565b5050505050565b6115aa611a57565b600073ffffffffffffffffffffffffffffffffffffffff168173ffffffffffffffffffffffffffffffffffffffff16141561161a576040517f08c379a0000000000000000000000000000000000000000000000000000000008152600401611611906142a1565b60405180910390fd5b61162381611dc8565b50565b61162e61172d565b73ffffffffffffffffffffffffffffffffffffffff168373ffffffffffffffffffffffffffffffffffffffff16148061167457506116738361166e61172d565b61146d565b5b6116b3576040517f08c379a00000000000000000000000000000000000000000000000000000000081526004016116aa90613da5565b60405180910390fd5b6116be838383612448565b505050565b60007f01ffc9a7000000000000000000000000000000000000000000000000000000007bffffffffffffffffffffffffffffffffffffffffffffffffffffffff1916827bffffffffffffffffffffffffffffffffffffffffffffffffffffffff1916149050919050565b600033905090565b8151835114611779576040517f08c379a000000000000000000000000000000000000000000000000000000000815260040161177090614333565b60405180910390fd5b600073ffffffffffffffffffffffffffffffffffffffff168473ffffffffffffffffffffffffffffffffffffffff1614156117e9576040517f08c379a00000000000000000000000000000000000000000000000000000000081526004016117e0906143c5565b60405180910390fd5b60006117f361172d565b905061180381878787878761268f565b60005b84518110156119b457600085828151811061182457611823613e95565b5b60200260200101519050600085838151811061184357611842613e95565b5b60200260200101519050600080600084815260200190815260200160002060008b73ffffffffffffffffffffffffffffffffffffffff1673ffffffffffffffffffffffffffffffffffffffff168152602001908152602001600020549050818110156118e4576040517f08c379a00000000000000000000000000000000000000000000000000000000081526004016118db90614457565b60405180910390fd5b81810360008085815260200190815260200160002060008c73ffffffffffffffffffffffffffffffffffffffff1673ffffffffffffffffffffffffffffffffffffffff168152602001908152602001600020819055508160008085815260200190815260200160002060008b73ffffffffffffffffffffffffffffffffffffffff1673ffffffffffffffffffffffffffffffffffffffff16815260200190815260200160002060008282546119999190614477565b92505081905550505050806119ad90613ef3565b9050611806565b508473ffffffffffffffffffffffffffffffffffffffff168673ffffffffffffffffffffffffffffffffffffffff168273ffffffffffffffffffffffffffffffffffffffff167f4a39dc06d4c0dbc64b70af90fd698a233a518aa5d07e595d983b8c0526c8f7fb8787604051611a2b9291906144cd565b60405180910390a4611a418187878787876126a5565b611a4f8187878787876126ad565b505050505050565b611a5f61172d565b73ffffffffffffffffffffffffffffffffffffffff16611a7d610f55565b73ffffffffffffffffffffffffffffffffffffffff1614611ad3576040517f08c379a0000000000000000000000000000000000000000000000000000000008152600401611aca90614550565b60405180910390fd5b565b600081600001549050919050565b6001816000016000828254019250508190555050565b600073ffffffffffffffffffffffffffffffffffffffff168373ffffffffffffffffffffffffffffffffffffffff161415611b69576040517f08c379a0000000000000000000000000000000000000000000000000000000008152600401611b60906145e2565b60405180910390fd5b8051825114611bad576040517f08c379a0000000000000000000000000000000000000000000000000000000008152600401611ba490614333565b60405180910390fd5b6000611bb761172d565b9050611bd78185600086866040518060200160405280600081525061268f565b60005b8351811015611d24576000848281518110611bf857611bf7613e95565b5b602002602001015190506000848381518110611c1757611c16613e95565b5b60200260200101519050600080600084815260200190815260200160002060008973ffffffffffffffffffffffffffffffffffffffff1673ffffffffffffffffffffffffffffffffffffffff16815260200190815260200160002054905081811015611cb8576040517f08c379a0000000000000000000000000000000000000000000000000000000008152600401611caf90614674565b60405180910390fd5b81810360008085815260200190815260200160002060008a73ffffffffffffffffffffffffffffffffffffffff1673ffffffffffffffffffffffffffffffffffffffff168152602001908152602001600020819055505050508080611d1c90613ef3565b915050611bda565b50600073ffffffffffffffffffffffffffffffffffffffff168473ffffffffffffffffffffffffffffffffffffffff168273ffffffffffffffffffffffffffffffffffffffff167f4a39dc06d4c0dbc64b70af90fd698a233a518aa5d07e595d983b8c0526c8f7fb8686604051611d9c9291906144cd565b60405180910390a4611dc2818560008686604051806020016040528060008152506126a5565b50505050565b6000600460009054906101000a900473ffffffffffffffffffffffffffffffffffffffff16905081600460006101000a81548173ffffffffffffffffffffffffffffffffffffffff021916908373ffffffffffffffffffffffffffffffffffffffff1602179055508173ffffffffffffffffffffffffffffffffffffffff168173ffffffffffffffffffffffffffffffffffffffff167f8be0079c531659141344cd1fd0a4f28419497f9722a3daafe3b4186f6b6457e060405160405180910390a35050565b8173ffffffffffffffffffffffffffffffffffffffff168373ffffffffffffffffffffffffffffffffffffffff161415611efd576040517f08c379a0000000000000000000000000000000000000000000000000000000008152600401611ef490614706565b60405180910390fd5b80600160008573ffffffffffffffffffffffffffffffffffffffff1673ffffffffffffffffffffffffffffffffffffffff16815260200190815260200160002060008473ffffffffffffffffffffffffffffffffffffffff1673ffffffffffffffffffffffffffffffffffffffff16815260200190815260200160002060006101000a81548160ff0219169083151502179055508173ffffffffffffffffffffffffffffffffffffffff168373ffffffffffffffffffffffffffffffffffffffff167f17307eab39ab6107e8899845ad3d59bd9653f200f220920489ca2b5937696c3183604051611fee9190612fb7565b60405180910390a3505050565b600073ffffffffffffffffffffffffffffffffffffffff168473ffffffffffffffffffffffffffffffffffffffff16141561206b576040517f08c379a000000000000000000000000000000000000000000000000000000000815260040161206290614798565b60405180910390fd5b600061207561172d565b90506000612082856128cc565b9050600061208f856128cc565b90506120a08360008985858961268f565b8460008088815260200190815260200160002060008973ffffffffffffffffffffffffffffffffffffffff1673ffffffffffffffffffffffffffffffffffffffff16815260200190815260200160002060008282546120ff9190614477565b925050819055508673ffffffffffffffffffffffffffffffffffffffff16600073ffffffffffffffffffffffffffffffffffffffff168473ffffffffffffffffffffffffffffffffffffffff167fc3d58168c5ae7397731d063d5bbf3d657854427343f4c083240f7aacaa2d0f62898960405161217d929190614195565b60405180910390a4612194836000898585896126a5565b6121a383600089898989612946565b50505050505050565b600073ffffffffffffffffffffffffffffffffffffffff168473ffffffffffffffffffffffffffffffffffffffff16141561221c576040517f08c379a0000000000000000000000000000000000000000000000000000000008152600401612213906143c5565b60405180910390fd5b600061222661172d565b90506000612233856128cc565b90506000612240856128cc565b905061225083898985858961268f565b600080600088815260200190815260200160002060008a73ffffffffffffffffffffffffffffffffffffffff1673ffffffffffffffffffffffffffffffffffffffff168152602001908152602001600020549050858110156122e7576040517f08c379a00000000000000000000000000000000000000000000000000000000081526004016122de90614457565b60405180910390fd5b85810360008089815260200190815260200160002060008b73ffffffffffffffffffffffffffffffffffffffff1673ffffffffffffffffffffffffffffffffffffffff168152602001908152602001600020819055508560008089815260200190815260200160002060008a73ffffffffffffffffffffffffffffffffffffffff1673ffffffffffffffffffffffffffffffffffffffff168152602001908152602001600020600082825461239c9190614477565b925050819055508773ffffffffffffffffffffffffffffffffffffffff168973ffffffffffffffffffffffffffffffffffffffff168573ffffffffffffffffffffffffffffffffffffffff167fc3d58168c5ae7397731d063d5bbf3d657854427343f4c083240f7aacaa2d0f628a8a604051612419929190614195565b60405180910390a461242f848a8a86868a6126a5565b61243d848a8a8a8a8a612946565b505050505050505050565b600073ffffffffffffffffffffffffffffffffffffffff168373ffffffffffffffffffffffffffffffffffffffff1614156124b8576040517f08c379a00000000000000000000000000000000000000000000000000000000081526004016124af906145e2565b60405180910390fd5b60006124c261172d565b905060006124cf846128cc565b905060006124dc846128cc565b90506124fc8387600085856040518060200160405280600081525061268f565b600080600087815260200190815260200160002060008873ffffffffffffffffffffffffffffffffffffffff1673ffffffffffffffffffffffffffffffffffffffff16815260200190815260200160002054905084811015612593576040517f08c379a000000000000000000000000000000000000000000000000000000000815260040161258a90614674565b60405180910390fd5b84810360008088815260200190815260200160002060008973ffffffffffffffffffffffffffffffffffffffff1673ffffffffffffffffffffffffffffffffffffffff16815260200190815260200160002081905550600073ffffffffffffffffffffffffffffffffffffffff168773ffffffffffffffffffffffffffffffffffffffff168573ffffffffffffffffffffffffffffffffffffffff167fc3d58168c5ae7397731d063d5bbf3d657854427343f4c083240f7aacaa2d0f628989604051612660929190614195565b60405180910390a4612686848860008686604051806020016040528060008152506126a5565b50505050505050565b61269d868686868686612b65565b505050505050565b505050505050565b6126cc8473ffffffffffffffffffffffffffffffffffffffff16612d37565b156128c4578373ffffffffffffffffffffffffffffffffffffffff1663bc197c8187878686866040518663ffffffff167c010000000000000000000000000000000000000000000000000000000002815260040161272e95949392919061480d565b602060405180830381600087803b15801561274857600080fd5b505af192505050801561277957506040513d601f19601f82011682018060405250810190612776919061488a565b60015b61281f576127856148e0565b806308c379a014156127e2575061279a614902565b806127a557506127e4565b806040517f08c379a00000000000000000000000000000000000000000000000000000000081526004016127d991906130d8565b60405180910390fd5b505b6040517f08c379a000000000000000000000000000000000000000000000000000000000815260040161281690614a0a565b60405180910390fd5b63bc197c817c0100000000000000000000000000000000000000000000000000000000027bffffffffffffffffffffffffffffffffffffffffffffffffffffffff1916817bffffffffffffffffffffffffffffffffffffffffffffffffffffffff1916146128c2576040517f08c379a00000000000000000000000000000000000000000000000000000000081526004016128b990614a9c565b60405180910390fd5b505b505050505050565b60606000600167ffffffffffffffff8111156128eb576128ea6130ff565b5b6040519080825280602002602001820160405280156129195781602001602082028036833780820191505090505b509050828160008151811061293157612930613e95565b5b60200260200101818152505080915050919050565b6129658473ffffffffffffffffffffffffffffffffffffffff16612d37565b15612b5d578373ffffffffffffffffffffffffffffffffffffffff1663f23a6e6187878686866040518663ffffffff167c01000000000000000000000000000000000000000000000000000000000281526004016129c7959493929190614abc565b602060405180830381600087803b1580156129e157600080fd5b505af1925050508015612a1257506040513d601f19601f82011682018060405250810190612a0f919061488a565b60015b612ab857612a1e6148e0565b806308c379a01415612a7b5750612a33614902565b80612a3e5750612a7d565b806040517f08c379a0000000000000000000000000000000000000000000000000000000008152600401612a7291906130d8565b60405180910390fd5b505b6040517f08c379a0000000000000000000000000000000000000000000000000000000008152600401612aaf90614a0a565b60405180910390fd5b63f23a6e617c0100000000000000000000000000000000000000000000000000000000027bffffffffffffffffffffffffffffffffffffffffffffffffffffffff1916817bffffffffffffffffffffffffffffffffffffffffffffffffffffffff191614612b5b576040517f08c379a0000000000000000000000000000000000000000000000000000000008152600401612b5290614a9c565b60405180910390fd5b505b505050505050565b612b73868686868686612d5a565b600073ffffffffffffffffffffffffffffffffffffffff168573ffffffffffffffffffffffffffffffffffffffff161415612c255760005b8351811015612c2357828181518110612bc757612bc6613e95565b5b602002602001015160036000868481518110612be657612be5613e95565b5b602002602001015181526020019081526020016000206000828254612c0b9190614477565b9250508190555080612c1c90613ef3565b9050612bab565b505b600073ffffffffffffffffffffffffffffffffffffffff168473ffffffffffffffffffffffffffffffffffffffff161415612d2f5760005b8351811015612d2d576000848281518110612c7b57612c7a613e95565b5b602002602001015190506000848381518110612c9a57612c99613e95565b5b6020026020010151905060006003600084815260200190815260200160002054905081811015612cff576040517f08c379a0000000000000000000000000000000000000000000000000000000008152600401612cf690614b88565b60405180910390fd5b818103600360008581526020019081526020016000208190555050505080612d2690613ef3565b9050612c5d565b505b505050505050565b6000808273ffffffffffffffffffffffffffffffffffffffff163b119050919050565b505050505050565b828054612d6e90613d01565b90600052602060002090601f016020900481019282612d905760008555612dd7565b82601f10612da957805160ff1916838001178555612dd7565b82800160010185558215612dd7579182015b82811115612dd6578251825591602001919060010190612dbb565b5b509050612de49190612de8565b5090565b5b80821115612e01576000816000905550600101612de9565b5090565b6000604051905090565b600080fd5b600080fd5b600073ffffffffffffffffffffffffffffffffffffffff82169050919050565b6000612e4482612e19565b9050919050565b612e5481612e39565b8114612e5f57600080fd5b50565b600081359050612e7181612e4b565b92915050565b6000819050919050565b612e8a81612e77565b8114612e9557600080fd5b50565b600081359050612ea781612e81565b92915050565b60008060408385031215612ec457612ec3612e0f565b5b6000612ed285828601612e62565b9250506020612ee385828601612e98565b9150509250929050565b612ef681612e77565b82525050565b6000602082019050612f116000830184612eed565b92915050565b60007fffffffff0000000000000000000000000000000000000000000000000000000082169050919050565b612f4c81612f17565b8114612f5757600080fd5b50565b600081359050612f6981612f43565b92915050565b600060208284031215612f8557612f84612e0f565b5b6000612f9384828501612f5a565b91505092915050565b60008115159050919050565b612fb181612f9c565b82525050565b6000602082019050612fcc6000830184612fa8565b92915050565b60008060408385031215612fe957612fe8612e0f565b5b6000612ff785828601612e98565b925050602061300885828601612e62565b9150509250929050565b60006020828403121561302857613027612e0f565b5b600061303684828501612e98565b91505092915050565b600081519050919050565b600082825260208201905092915050565b60005b8381101561307957808201518184015260208101905061305e565b83811115613088576000848401525b50505050565b6000601f19601f8301169050919050565b60006130aa8261303f565b6130b4818561304a565b93506130c481856020860161305b565b6130cd8161308e565b840191505092915050565b600060208201905081810360008301526130f2818461309f565b905092915050565b600080fd5b7f4e487b7100000000000000000000000000000000000000000000000000000000600052604160045260246000fd5b6131378261308e565b810181811067ffffffffffffffff82111715613156576131556130ff565b5b80604052505050565b6000613169612e05565b9050613175828261312e565b919050565b600067ffffffffffffffff821115613195576131946130ff565b5b602082029050602081019050919050565b600080fd5b60006131be6131b98461317a565b61315f565b905080838252602082019050602084028301858111156131e1576131e06131a6565b5b835b8181101561320a57806131f68882612e98565b8452602084019350506020810190506131e3565b5050509392505050565b600082601f830112613229576132286130fa565b5b81356132398482602086016131ab565b91505092915050565b600080fd5b600067ffffffffffffffff821115613262576132616130ff565b5b61326b8261308e565b9050602081019050919050565b82818337600083830152505050565b600061329a61329584613247565b61315f565b9050828152602081018484840111156132b6576132b5613242565b5b6132c1848285613278565b509392505050565b600082601f8301126132de576132dd6130fa565b5b81356132ee848260208601613287565b91505092915050565b600080600080600060a0868803121561331357613312612e0f565b5b600061332188828901612e62565b955050602061333288828901612e62565b945050604086013567ffffffffffffffff81111561335357613352612e14565b5b61335f88828901613214565b935050606086013567ffffffffffffffff8111156133805761337f612e14565b5b61338c88828901613214565b925050608086013567ffffffffffffffff8111156133ad576133ac612e14565b5b6133b9888289016132c9565b9150509295509295909350565b600067ffffffffffffffff8211156133e1576133e06130ff565b5b6133ea8261308e565b9050602081019050919050565b600061340a613405846133c6565b61315f565b90508281526020810184848401111561342657613425613242565b5b613431848285613278565b509392505050565b600082601f83011261344e5761344d6130fa565b5b813561345e8482602086016133f7565b91505092915050565b6000806040838503121561347e5761347d612e0f565b5b600061348c85828601612e98565b925050602083013567ffffffffffffffff8111156134ad576134ac612e14565b5b6134b985828601613439565b9150509250929050565b600067ffffffffffffffff8211156134de576134dd6130ff565b5b602082029050602081019050919050565b60006135026134fd846134c3565b61315f565b90508083825260208201905060208402830185811115613525576135246131a6565b5b835b8181101561354e578061353a8882612e62565b845260208401935050602081019050613527565b5050509392505050565b600082601f83011261356d5761356c6130fa565b5b813561357d8482602086016134ef565b91505092915050565b6000806040838503121561359d5761359c612e0f565b5b600083013567ffffffffffffffff8111156135bb576135ba612e14565b5b6135c785828601613558565b925050602083013567ffffffffffffffff8111156135e8576135e7612e14565b5b6135f485828601613214565b9150509250929050565b600081519050919050565b600082825260208201905092915050565b6000819050602082019050919050565b61363381612e77565b82525050565b6000613645838361362a565b60208301905092915050565b6000602082019050919050565b6000613669826135fe565b6136738185613609565b935061367e8361361a565b8060005b838110156136af5781516136968882613639565b97506136a183613651565b925050600181019050613682565b5085935050505092915050565b600060208201905081810360008301526136d6818461365e565b905092915050565b6000806000606084860312156136f7576136f6612e0f565b5b600061370586828701612e62565b935050602084013567ffffffffffffffff81111561372657613725612e14565b5b61373286828701613214565b925050604084013567ffffffffffffffff81111561375357613752612e14565b5b61375f86828701613214565b9150509250925092565b61377281612e39565b82525050565b600060208201905061378d6000830184613769565b92915050565b600080600080608085870312156137ad576137ac612e0f565b5b600085013567ffffffffffffffff8111156137cb576137ca612e14565b5b6137d787828801613439565b945050602085013567ffffffffffffffff8111156137f8576137f7612e14565b5b61380487828801613439565b935050604061381587828801612e62565b925050606061382687828801612e98565b91505092959194509250565b61383b81612f9c565b811461384657600080fd5b50565b60008135905061385881613832565b92915050565b6000806040838503121561387557613874612e0f565b5b600061388385828601612e62565b925050602061389485828601613849565b9150509250929050565b6000806000606084860312156138b7576138b6612e0f565b5b600084013567ffffffffffffffff8111156138d5576138d4612e14565b5b6138e186828701613439565b93505060206138f286828701612e62565b925050604061390386828701612e98565b9150509250925092565b6000806040838503121561392457613923612e0f565b5b600061393285828601612e98565b925050602061394385828601612e98565b9150509250929050565b6000806040838503121561396457613963612e0f565b5b600061397285828601612e62565b925050602061398385828601612e62565b9150509250929050565b600080600080600060a086880312156139a9576139a8612e0f565b5b60006139b788828901612e62565b95505060206139c888828901612e62565b94505060406139d988828901612e98565b93505060606139ea88828901612e98565b925050608086013567ffffffffffffffff811115613a0b57613a0a612e14565b5b613a17888289016132c9565b9150509295509295909350565b600060208284031215613a3a57613a39612e0f565b5b6000613a4884828501612e62565b91505092915050565b600080600060608486031215613a6a57613a69612e0f565b5b6000613a7886828701612e62565b9350506020613a8986828701612e98565b9250506040613a9a86828701612e98565b9150509250925092565b7f455243313135353a2061646472657373207a65726f206973206e6f742061207660008201527f616c6964206f776e657200000000000000000000000000000000000000000000602082015250565b6000613b00602a8361304a565b9150613b0b82613aa4565b604082019050919050565b60006020820190508181036000830152613b2f81613af3565b9050919050565b7f4e487b7100000000000000000000000000000000000000000000000000000000600052602160045260246000fd5b7f566f74696e672079657420746f20626520616374697665000000000000000000600082015250565b6000613b9b60178361304a565b9150613ba682613b65565b602082019050919050565b60006020820190508181036000830152613bca81613b8e565b9050919050565b7f566f74657220646f6573206e6f74206861766520766f74696e6720746f6b656e600082015250565b6000613c0760208361304a565b9150613c1282613bd1565b602082019050919050565b60006020820190508181036000830152613c3681613bfa565b9050919050565b7f43616e646964617465206973206e6f742076616c696400000000000000000000600082015250565b6000613c7360168361304a565b9150613c7e82613c3d565b602082019050919050565b60006020820190508181036000830152613ca281613c66565b9050919050565b6000604082019050613cbe6000830185612eed565b613ccb6020830184613769565b9392505050565b7f4e487b7100000000000000000000000000000000000000000000000000000000600052602260045260246000fd5b60006002820490506001821680613d1957607f821691505b60208210811415613d2d57613d2c613cd2565b5b50919050565b7f455243313135353a2063616c6c6572206973206e6f7420746f6b656e206f776e60008201527f6572206f7220617070726f766564000000000000000000000000000000000000602082015250565b6000613d8f602e8361304a565b9150613d9a82613d33565b604082019050919050565b60006020820190508181036000830152613dbe81613d82565b9050919050565b6000606082019050613dda6000830186612eed565b613de76020830185612eed565b8181036040830152613df9818461309f565b9050949350505050565b7f455243313135353a206163636f756e747320616e6420696473206c656e67746860008201527f206d69736d617463680000000000000000000000000000000000000000000000602082015250565b6000613e5f60298361304a565b9150613e6a82613e03565b604082019050919050565b60006020820190508181036000830152613e8e81613e52565b9050919050565b7f4e487b7100000000000000000000000000000000000000000000000000000000600052603260045260246000fd5b7f4e487b7100000000000000000000000000000000000000000000000000000000600052601160045260246000fd5b6000613efe82612e77565b91507fffffffffffffffffffffffffffffffffffffffffffffffffffffffffffffffff821415613f3157613f30613ec4565b5b600182019050919050565b600081905092915050565b6000613f528261303f565b613f5c8185613f3c565b9350613f6c81856020860161305b565b80840191505092915050565b6000613f848284613f47565b915081905092915050565b7f61646472657373207a65726f206973206e6f7420616c6c6f7765640000000000600082015250565b6000613fc5601b8361304a565b9150613fd082613f8f565b602082019050919050565b60006020820190508181036000830152613ff481613fb8565b9050919050565b7f456c656374696f6e206e6f7420696e206465636c617265642073746167652e00600082015250565b6000614031601f8361304a565b915061403c82613ffb565b602082019050919050565b6000602082019050818103600083015261406081614024565b9050919050565b600060408201905061407c6000830185612eed565b818103602083015261408e818461309f565b90509392505050565b7f566f74696e67206973206e6f74206f70656e2079657400000000000000000000600082015250565b60006140cd60168361304a565b91506140d882614097565b602082019050919050565b600060208201905081810360008301526140fc816140c0565b9050919050565b7f546f6b656e2068617320616c7265616479207472616e7366657272656420746f60008201527f20566f7465720000000000000000000000000000000000000000000000000000602082015250565b600061415f60268361304a565b915061416a82614103565b604082019050919050565b6000602082019050818103600083015261418e81614152565b9050919050565b60006040820190506141aa6000830185612eed565b6141b76020830184612eed565b9392505050565b600481106141cf576141ce613b36565b5b50565b60008190506141e0826141be565b919050565b60006141f0826141d2565b9050919050565b614200816141e5565b82525050565b600060408201905061421b6000830185612eed565b61422860208301846141f7565b9392505050565b7f4f776e61626c653a206e6577206f776e657220697320746865207a65726f206160008201527f6464726573730000000000000000000000000000000000000000000000000000602082015250565b600061428b60268361304a565b91506142968261422f565b604082019050919050565b600060208201905081810360008301526142ba8161427e565b9050919050565b7f455243313135353a2069647320616e6420616d6f756e7473206c656e6774682060008201527f6d69736d61746368000000000000000000000000000000000000000000000000602082015250565b600061431d60288361304a565b9150614328826142c1565b604082019050919050565b6000602082019050818103600083015261434c81614310565b9050919050565b7f455243313135353a207472616e7366657220746f20746865207a65726f20616460008201527f6472657373000000000000000000000000000000000000000000000000000000602082015250565b60006143af60258361304a565b91506143ba82614353565b604082019050919050565b600060208201905081810360008301526143de816143a2565b9050919050565b7f455243313135353a20696e73756666696369656e742062616c616e636520666f60008201527f72207472616e7366657200000000000000000000000000000000000000000000602082015250565b6000614441602a8361304a565b915061444c826143e5565b604082019050919050565b6000602082019050818103600083015261447081614434565b9050919050565b600061448282612e77565b915061448d83612e77565b9250827fffffffffffffffffffffffffffffffffffffffffffffffffffffffffffffffff038211156144c2576144c1613ec4565b5b828201905092915050565b600060408201905081810360008301526144e7818561365e565b905081810360208301526144fb818461365e565b90509392505050565b7f4f776e61626c653a2063616c6c6572206973206e6f7420746865206f776e6572600082015250565b600061453a60208361304a565b915061454582614504565b602082019050919050565b600060208201905081810360008301526145698161452d565b9050919050565b7f455243313135353a206275726e2066726f6d20746865207a65726f206164647260008201527f6573730000000000000000000000000000000000000000000000000000000000602082015250565b60006145cc60238361304a565b91506145d782614570565b604082019050919050565b600060208201905081810360008301526145fb816145bf565b9050919050565b7f455243313135353a206275726e20616d6f756e7420657863656564732062616c60008201527f616e636500000000000000000000000000000000000000000000000000000000602082015250565b600061465e60248361304a565b915061466982614602565b604082019050919050565b6000602082019050818103600083015261468d81614651565b9050919050565b7f455243313135353a2073657474696e6720617070726f76616c2073746174757360008201527f20666f722073656c660000000000000000000000000000000000000000000000602082015250565b60006146f060298361304a565b91506146fb82614694565b604082019050919050565b6000602082019050818103600083015261471f816146e3565b9050919050565b7f455243313135353a206d696e7420746f20746865207a65726f2061646472657360008201527f7300000000000000000000000000000000000000000000000000000000000000602082015250565b600061478260218361304a565b915061478d82614726565b604082019050919050565b600060208201905081810360008301526147b181614775565b9050919050565b600081519050919050565b600082825260208201905092915050565b60006147df826147b8565b6147e981856147c3565b93506147f981856020860161305b565b6148028161308e565b840191505092915050565b600060a0820190506148226000830188613769565b61482f6020830187613769565b8181036040830152614841818661365e565b90508181036060830152614855818561365e565b9050818103608083015261486981846147d4565b90509695505050505050565b60008151905061488481612f43565b92915050565b6000602082840312156148a05761489f612e0f565b5b60006148ae84828501614875565b91505092915050565b60007c010000000000000000000000000000000000000000000000000000000082049050919050565b600060033d11156148ff5760046000803e6148fc6000516148b7565b90505b90565b600060443d101561491257614995565b61491a612e05565b60043d036004823e80513d602482011167ffffffffffffffff82111715614942575050614995565b808201805167ffffffffffffffff8111156149605750505050614995565b80602083010160043d03850181111561497d575050505050614995565b61498c8260200185018661312e565b82955050505050505b90565b7f455243313135353a207472616e7366657220746f206e6f6e2d4552433131353560008201527f526563656976657220696d706c656d656e746572000000000000000000000000602082015250565b60006149f460348361304a565b91506149ff82614998565b604082019050919050565b60006020820190508181036000830152614a23816149e7565b9050919050565b7f455243313135353a204552433131353552656365697665722072656a6563746560008201527f6420746f6b656e73000000000000000000000000000000000000000000000000602082015250565b6000614a8660288361304a565b9150614a9182614a2a565b604082019050919050565b60006020820190508181036000830152614ab581614a79565b9050919050565b600060a082019050614ad16000830188613769565b614ade6020830187613769565b614aeb6040830186612eed565b614af86060830185612eed565b8181036080830152614b0a81846147d4565b90509695505050505050565b7f455243313135353a206275726e20616d6f756e74206578636565647320746f7460008201527f616c537570706c79000000000000000000000000000000000000000000000000602082015250565b6000614b7260288361304a565b9150614b7d82614b16565b604082019050919050565b60006020820190508181036000830152614ba181614b65565b905091905056fea2646970667358221220364fd5bd2ed3953747d4989c1fb6e7698a903c9b5e972b019154acd5469fecc464736f6c63430008090033",
  "immutableReferences": {},
  "source": "// SPDX-License-Identifier: MIT\r\npragma solidity ^0.8.0;\r\nimport \"@openzeppelin/contracts/token/ERC1155/ERC1155.sol\";\r\nimport \"@openzeppelin/contracts/access/Ownable.sol\";\r\nimport \"@openzeppelin/contracts/utils/Counters.sol\";\r\nimport \"@openzeppelin/contracts/token/ERC1155/extensions/ERC1155Supply.sol\";\r\nimport \"@openzeppelin/contracts/token/ERC1155/extensions/ERC1155Burnable.sol\";\r\n\r\ncontract Voting is ERC1155, ERC1155Supply, Ownable, ERC1155Burnable {\r\n    constructor() ERC1155(\"\") {\r\n    }\r\n\r\n    enum electionStage {Declared, Active, Closed, Results}\r\n\r\n    event NewElectionCreate(uint256 votingId, uint256 electionId, string description);\r\n    event NewCandidateRegistered(uint256 votingId, string emailId);\r\n    // event VotingEnabled(uint256 votingId, electionStage stage);\r\n    // event VotingDisabled(uint256 votingId, electionStage stage);\r\n    event VotingStageChange(uint256 votingId, electionStage stage);\r\n    event VotingTokenTransfered(uint256 votingId, uint256 electionId);\r\n    event Voted(uint256 votingId, address candidateAddress);\r\n    using Counters for Counters.Counter;\r\n    Counters.Counter public _tokenIdCounter;\r\n\r\n    struct VotingDetails {\r\n        uint256 electionId;\r\n        string description;\r\n        electionStage stage;\r\n        address[] candidates;\r\n    }\r\n    \r\n    struct CandidateDetails {\r\n        string candidateName;\r\n        address candidateAddress;\r\n    }\r\n    \r\n    mapping(uint256 => VotingDetails) private votingDetails;\r\n    mapping(string => CandidateDetails) private candidateDetails;\r\n    mapping(string => uint256[]) private tokenDistributedToVoters;\r\n\r\n    function initiatedNewVoting(uint256 _votingId, string memory _description) public onlyOwner{\r\n        uint256 _tokenId = _tokenIdCounter.current();\r\n        votingDetails[_votingId].electionId = _tokenId;\r\n        votingDetails[_votingId].description = _description;\r\n        votingDetails[_votingId].stage = electionStage.Declared;\r\n        _tokenIdCounter.increment();\r\n        \r\n        emit NewElectionCreate(_votingId, _tokenId, _description);\r\n    }\r\n\r\n    function registerCandidate(string memory _name, string memory _emailId, address _candidateAddress, uint256 _votingId) public {\r\n        require(_candidateAddress != address(0), 'address zero is not allowed');\r\n        require(votingDetails[_votingId].stage == electionStage.Declared,\"Election not in declared stage.\");\r\n        votingDetails[_votingId].candidates.push(_candidateAddress);\r\n        candidateDetails[_emailId].candidateName = _name;\r\n        candidateDetails[_emailId].candidateAddress = _candidateAddress;\r\n        emit NewCandidateRegistered(_votingId, _emailId);\r\n    }\r\n    \r\n    function changeStage(uint256 _votingId, uint256 _stage) public onlyOwner {\r\n        votingDetails[_votingId].stage = electionStage(_stage);\r\n        emit VotingStageChange(_votingId, votingDetails[_votingId].stage);\r\n    }\r\n\r\n    /*\r\n    function disableVoting(uint256 _votingId) public onlyOwner {\r\n        votingDetails[_votingId].stage = electionStage.Closed;\r\n        emit VotingDisabled(_votingId, votingDetails[_votingId].stage);\r\n    }\r\n\r\n    function enableVoting(uint256 _votingId) public onlyOwner {\r\n        votingDetails[_votingId].stage = electionStage.Active;\r\n        emit VotingEnabled(_votingId, votingDetails[_votingId].stage);\r\n    }\r\n    */\r\n\r\n    function requestVotingToken(string memory _emailId, address _to, uint256 _votingId) public {\r\n        require(votingDetails[_votingId].stage == electionStage.Active, 'Voting is not open yet');\r\n        require(isTokenDistributed(_votingId, _emailId ) == false, 'Token has already transferred to Voter');\r\n        uint256 electionId = votingDetails[_votingId].electionId;\r\n        _mint(_to, electionId, 1, '');\r\n        tokenDistributedToVoters[_emailId].push(_votingId);\r\n        emit VotingTokenTransfered(_votingId, electionId);\r\n    }\r\n\r\n    function getVotingTokenCount(uint256 _votingId) public view returns (uint256){\r\n        return totalSupply(votingDetails[_votingId].electionId);\r\n    }\r\n\r\n    function getVotingTokenId(uint256 _votingId) public view returns (uint256){\r\n        return votingDetails[_votingId].electionId;\r\n    }\r\n\r\n    function isTokenDistributed(uint256 _votingId, string memory _emailId) public view returns (bool){\r\n        uint256[] memory ids = tokenDistributedToVoters[_emailId];\r\n        bool status = false;\r\n        for(uint i=0; i< ids.length; i++){\r\n            if(ids[i] == _votingId){\r\n                status = true;\r\n            }\r\n        }\r\n        return status;\r\n    }\r\n\r\n    function isCandidateValid(uint256 _votingId, address _candidateAddress) public view returns (bool){\r\n        for(uint i=0; i< votingDetails[_votingId].candidates.length; i++){\r\n            if(_candidateAddress == votingDetails[_votingId].candidates[i]){\r\n                return true;\r\n            }\r\n        }\r\n        return false;\r\n    }\r\n\r\n    function vote(uint256 _votingId, address _candidateAddress) public {\r\n        electionStage _stage = votingDetails[_votingId].stage;\r\n        uint256 electionId = votingDetails[_votingId].electionId;\r\n        require(_stage == electionStage.Active, 'Voting yet to be active');\r\n        require(balanceOf(msg.sender, electionId) == 1, 'Voter does not have voting token');\r\n        require(isCandidateValid(_votingId,_candidateAddress) == true, 'Candidate is not valid');\r\n        safeTransferFrom(msg.sender, _candidateAddress, electionId, 1, \"\");\r\n        emit Voted(_votingId, _candidateAddress);\r\n    }\r\n  \r\n    function isVotingOpen(uint256 _votingId) public view returns(bool){\r\n        if(votingDetails[_votingId].stage == electionStage.Active){\r\n            return true;\r\n        }\r\n        return false;\r\n    }\r\n    \r\n    function _beforeTokenTransfer(address operator, address from, address to, uint256[] memory ids, uint256[] memory amounts, bytes memory data)\r\n        internal override(ERC1155, ERC1155Supply)\r\n    {\r\n        super._beforeTokenTransfer(operator, from, to, ids, amounts, data);\r\n    }\r\n\r\n    function declareResult(uint256 _votingId) public {\r\n        votingDetails[_votingId].stage = electionStage.Results;\r\n    }\r\n}",
  "sourcePath": "C:\\Users\\admin\\Desktop\\react\\Voting\\blockchain\\contracts\\Voting.sol",
  "compiler": {
    "name": "solc",
    "version": "0.8.9+commit.e5eed63a.Emscripten.clang"
  },
  "schemaVersion": "3.4.3",
  "updatedAt": "2023-06-04T08:15:01.347Z",
  "networkType": "ethereum",
  "devdoc": {
    "kind": "dev",
    "methods": {
      "balanceOf(address,uint256)": {
        "details": "See {IERC1155-balanceOf}. Requirements: - `account` cannot be the zero address."
      },
      "balanceOfBatch(address[],uint256[])": {
        "details": "See {IERC1155-balanceOfBatch}. Requirements: - `accounts` and `ids` must have the same length."
      },
      "exists(uint256)": {
        "details": "Indicates whether any token exist with a given id, or not."
      },
      "isApprovedForAll(address,address)": {
        "details": "See {IERC1155-isApprovedForAll}."
      },
      "owner()": {
        "details": "Returns the address of the current owner."
      },
      "renounceOwnership()": {
        "details": "Leaves the contract without owner. It will not be possible to call `onlyOwner` functions anymore. Can only be called by the current owner. NOTE: Renouncing ownership will leave the contract without an owner, thereby removing any functionality that is only available to the owner."
      },
      "safeBatchTransferFrom(address,address,uint256[],uint256[],bytes)": {
        "details": "See {IERC1155-safeBatchTransferFrom}."
      },
      "safeTransferFrom(address,address,uint256,uint256,bytes)": {
        "details": "See {IERC1155-safeTransferFrom}."
      },
      "setApprovalForAll(address,bool)": {
        "details": "See {IERC1155-setApprovalForAll}."
      },
      "supportsInterface(bytes4)": {
        "details": "See {IERC165-supportsInterface}."
      },
      "totalSupply(uint256)": {
        "details": "Total amount of tokens in with a given id."
      },
      "transferOwnership(address)": {
        "details": "Transfers ownership of the contract to a new account (`newOwner`). Can only be called by the current owner."
      },
      "uri(uint256)": {
        "details": "See {IERC1155MetadataURI-uri}. This implementation returns the same URI for *all* token types. It relies on the token type ID substitution mechanism https://eips.ethereum.org/EIPS/eip-1155#metadata[defined in the EIP]. Clients calling this function must replace the `\\{id\\}` substring with the actual token type ID."
      }
    },
    "version": 1
  },
  "userdoc": {
    "kind": "user",
    "methods": {},
    "version": 1
  }
}